{
  "contractName": "DigitalPicture",
  "abi": [
    {
      "inputs": [],
      "stateMutability": "nonpayable",
      "type": "constructor"
    },
    {
      "anonymous": false,
      "inputs": [
        {
          "indexed": true,
          "internalType": "address",
          "name": "owner",
          "type": "address"
        },
        {
          "indexed": true,
          "internalType": "address",
          "name": "approved",
          "type": "address"
        },
        {
          "indexed": true,
          "internalType": "uint256",
          "name": "tokenId",
          "type": "uint256"
        }
      ],
      "name": "Approval",
      "type": "event"
    },
    {
      "anonymous": false,
      "inputs": [
        {
          "indexed": true,
          "internalType": "address",
          "name": "owner",
          "type": "address"
        },
        {
          "indexed": true,
          "internalType": "address",
          "name": "operator",
          "type": "address"
        },
        {
          "indexed": false,
          "internalType": "bool",
          "name": "approved",
          "type": "bool"
        }
      ],
      "name": "ApprovalForAll",
      "type": "event"
    },
    {
      "anonymous": false,
      "inputs": [
        {
          "indexed": true,
          "internalType": "address",
          "name": "from",
          "type": "address"
        },
        {
          "indexed": true,
          "internalType": "address",
          "name": "to",
          "type": "address"
        },
        {
          "indexed": true,
          "internalType": "uint256",
          "name": "tokenId",
          "type": "uint256"
        }
      ],
      "name": "Transfer",
      "type": "event"
    },
    {
      "inputs": [
        {
          "internalType": "address",
          "name": "to",
          "type": "address"
        },
        {
          "internalType": "uint256",
          "name": "tokenId",
          "type": "uint256"
        }
      ],
      "name": "approve",
      "outputs": [],
      "stateMutability": "nonpayable",
      "type": "function"
    },
    {
      "inputs": [
        {
          "internalType": "address",
          "name": "owner",
          "type": "address"
        }
      ],
      "name": "balanceOf",
      "outputs": [
        {
          "internalType": "uint256",
          "name": "",
          "type": "uint256"
        }
      ],
      "stateMutability": "view",
      "type": "function"
    },
    {
      "inputs": [
        {
          "internalType": "uint256",
          "name": "tokenId",
          "type": "uint256"
        }
      ],
      "name": "getApproved",
      "outputs": [
        {
          "internalType": "address",
          "name": "",
          "type": "address"
        }
      ],
      "stateMutability": "view",
      "type": "function"
    },
    {
      "inputs": [
        {
          "internalType": "address",
          "name": "owner",
          "type": "address"
        },
        {
          "internalType": "address",
          "name": "operator",
          "type": "address"
        }
      ],
      "name": "isApprovedForAll",
      "outputs": [
        {
          "internalType": "bool",
          "name": "",
          "type": "bool"
        }
      ],
      "stateMutability": "view",
      "type": "function"
    },
    {
      "inputs": [],
      "name": "name",
      "outputs": [
        {
          "internalType": "string",
          "name": "",
          "type": "string"
        }
      ],
      "stateMutability": "view",
      "type": "function"
    },
    {
      "inputs": [
        {
          "internalType": "uint256",
          "name": "tokenId",
          "type": "uint256"
        }
      ],
      "name": "ownerOf",
      "outputs": [
        {
          "internalType": "address",
          "name": "",
          "type": "address"
        }
      ],
      "stateMutability": "view",
      "type": "function"
    },
    {
      "inputs": [
        {
          "internalType": "address",
          "name": "from",
          "type": "address"
        },
        {
          "internalType": "address",
          "name": "to",
          "type": "address"
        },
        {
          "internalType": "uint256",
          "name": "tokenId",
          "type": "uint256"
        }
      ],
      "name": "safeTransferFrom",
      "outputs": [],
      "stateMutability": "nonpayable",
      "type": "function"
    },
    {
      "inputs": [
        {
          "internalType": "address",
          "name": "from",
          "type": "address"
        },
        {
          "internalType": "address",
          "name": "to",
          "type": "address"
        },
        {
          "internalType": "uint256",
          "name": "tokenId",
          "type": "uint256"
        },
        {
          "internalType": "bytes",
          "name": "_data",
          "type": "bytes"
        }
      ],
      "name": "safeTransferFrom",
      "outputs": [],
      "stateMutability": "nonpayable",
      "type": "function"
    },
    {
      "inputs": [
        {
          "internalType": "address",
          "name": "operator",
          "type": "address"
        },
        {
          "internalType": "bool",
          "name": "approved",
          "type": "bool"
        }
      ],
      "name": "setApprovalForAll",
      "outputs": [],
      "stateMutability": "nonpayable",
      "type": "function"
    },
    {
      "inputs": [
        {
          "internalType": "bytes4",
          "name": "interfaceId",
          "type": "bytes4"
        }
      ],
      "name": "supportsInterface",
      "outputs": [
        {
          "internalType": "bool",
          "name": "",
          "type": "bool"
        }
      ],
      "stateMutability": "view",
      "type": "function"
    },
    {
      "inputs": [],
      "name": "symbol",
      "outputs": [
        {
          "internalType": "string",
          "name": "",
          "type": "string"
        }
      ],
      "stateMutability": "view",
      "type": "function"
    },
    {
      "inputs": [
        {
          "internalType": "uint256",
          "name": "tokenId",
          "type": "uint256"
        }
      ],
      "name": "tokenURI",
      "outputs": [
        {
          "internalType": "string",
          "name": "",
          "type": "string"
        }
      ],
      "stateMutability": "view",
      "type": "function"
    },
    {
      "inputs": [
        {
          "internalType": "address",
          "name": "from",
          "type": "address"
        },
        {
          "internalType": "address",
          "name": "to",
          "type": "address"
        },
        {
          "internalType": "uint256",
          "name": "tokenId",
          "type": "uint256"
        }
      ],
      "name": "transferFrom",
      "outputs": [],
      "stateMutability": "nonpayable",
      "type": "function"
    },
    {
      "inputs": [
        {
          "internalType": "address",
          "name": "creator",
          "type": "address"
        },
        {
          "internalType": "string",
          "name": "tokenURI",
          "type": "string"
        }
      ],
      "name": "publishItem",
      "outputs": [
        {
          "internalType": "uint256",
          "name": "",
          "type": "uint256"
        }
      ],
      "stateMutability": "nonpayable",
      "type": "function"
    }
  ],
  "bytecode": "0x60806040523480156200001157600080fd5b506040518060400160405280600e81526020017f4469676974616c506963747572650000000000000000000000000000000000008152506040518060400160405280600381526020017f4e4450000000000000000000000000000000000000000000000000000000000081525081600090816200008f919062000324565b508060019081620000a1919062000324565b5050506200040b565b600081519050919050565b7f4e487b7100000000000000000000000000000000000000000000000000000000600052604160045260246000fd5b7f4e487b7100000000000000000000000000000000000000000000000000000000600052602260045260246000fd5b600060028204905060018216806200012c57607f821691505b602082108103620001425762000141620000e4565b5b50919050565b60008190508160005260206000209050919050565b60006020601f8301049050919050565b600082821b905092915050565b600060088302620001ac7fffffffffffffffffffffffffffffffffffffffffffffffffffffffffffffffff826200016d565b620001b886836200016d565b95508019841693508086168417925050509392505050565b6000819050919050565b6000819050919050565b600062000205620001ff620001f984620001d0565b620001da565b620001d0565b9050919050565b6000819050919050565b6200022183620001e4565b6200023962000230826200020c565b8484546200017a565b825550505050565b600090565b6200025062000241565b6200025d81848462000216565b505050565b5b8181101562000285576200027960008262000246565b60018101905062000263565b5050565b601f821115620002d4576200029e8162000148565b620002a9846200015d565b81016020851015620002b9578190505b620002d1620002c8856200015d565b83018262000262565b50505b505050565b600082821c905092915050565b6000620002f960001984600802620002d9565b1980831691505092915050565b6000620003148383620002e6565b9150826002028217905092915050565b6200032f82620000aa565b67ffffffffffffffff8111156200034b576200034a620000b5565b5b62000357825462000113565b6200036482828562000289565b600060209050601f8311600181146200039c576000841562000387578287015190505b62000393858262000306565b86555062000403565b601f198416620003ac8662000148565b60005b82811015620003d657848901518255600182019150602085019450602081019050620003af565b86831015620003f65784890151620003f2601f891682620002e6565b8355505b6001600288020188555050505b505050505050565b612d8b806200041b6000396000f3fe608060405234801561001057600080fd5b50600436106100ea5760003560e01c806370a082311161008c578063b88d4fde11610066578063b88d4fde1461025b578063c87b56dd14610277578063e985e9c5146102a7578063ef15f842146102d7576100ea565b806370a08231146101f157806395d89b4114610221578063a22cb4651461023f576100ea565b8063095ea7b3116100c8578063095ea7b31461016d57806323b872dd1461018957806342842e0e146101a55780636352211e146101c1576100ea565b806301ffc9a7146100ef57806306fdde031461011f578063081812fc1461013d575b600080fd5b61010960048036038101906101049190611871565b610307565b60405161011691906118b9565b60405180910390f35b6101276103e9565b604051610134919061196d565b60405180910390f35b610157600480360381019061015291906119c5565b61047b565b6040516101649190611a33565b60405180910390f35b61018760048036038101906101829190611a7a565b610500565b005b6101a3600480360381019061019e9190611aba565b610617565b005b6101bf60048036038101906101ba9190611aba565b610677565b005b6101db60048036038101906101d691906119c5565b610697565b6040516101e89190611a33565b60405180910390f35b61020b60048036038101906102069190611b0d565b610748565b6040516102189190611b49565b60405180910390f35b6102296107ff565b604051610236919061196d565b60405180910390f35b61025960048036038101906102549190611b90565b610891565b005b61027560048036038101906102709190611d05565b6108a7565b005b610291600480360381019061028c91906119c5565b610909565b60405161029e919061196d565b60405180910390f35b6102c160048036038101906102bc9190611d88565b610a5a565b6040516102ce91906118b9565b60405180910390f35b6102f160048036038101906102ec9190611e69565b610aee565b6040516102fe9190611b49565b60405180910390f35b60007f80ac58cd000000000000000000000000000000000000000000000000000000007bffffffffffffffffffffffffffffffffffffffffffffffffffffffff1916827bffffffffffffffffffffffffffffffffffffffffffffffffffffffff191614806103d257507f5b5e139f000000000000000000000000000000000000000000000000000000007bffffffffffffffffffffffffffffffffffffffffffffffffffffffff1916827bffffffffffffffffffffffffffffffffffffffffffffffffffffffff1916145b806103e257506103e182610b26565b5b9050919050565b6060600080546103f890611ef4565b80601f016020809104026020016040519081016040528092919081815260200182805461042490611ef4565b80156104715780601f1061044657610100808354040283529160200191610471565b820191906000526020600020905b81548152906001019060200180831161045457829003601f168201915b5050505050905090565b600061048682610b90565b6104c5576040517f08c379a00000000000000000000000000000000000000000000000000000000081526004016104bc90611f97565b60405180910390fd5b6004600083815260200190815260200160002060009054906101000a900473ffffffffffffffffffffffffffffffffffffffff169050919050565b600061050b82610697565b90508073ffffffffffffffffffffffffffffffffffffffff168373ffffffffffffffffffffffffffffffffffffffff160361057b576040517f08c379a000000000000000000000000000000000000000000000000000000000815260040161057290612029565b60405180910390fd5b8073ffffffffffffffffffffffffffffffffffffffff1661059a610bfc565b73ffffffffffffffffffffffffffffffffffffffff1614806105c957506105c8816105c3610bfc565b610a5a565b5b610608576040517f08c379a00000000000000000000000000000000000000000000000000000000081526004016105ff906120bb565b60405180910390fd5b6106128383610c04565b505050565b610628610622610bfc565b82610cbd565b610667576040517f08c379a000000000000000000000000000000000000000000000000000000000815260040161065e9061214d565b60405180910390fd5b610672838383610d9b565b505050565b610692838383604051806020016040528060008152506108a7565b505050565b6000806002600084815260200190815260200160002060009054906101000a900473ffffffffffffffffffffffffffffffffffffffff169050600073ffffffffffffffffffffffffffffffffffffffff168173ffffffffffffffffffffffffffffffffffffffff160361073f576040517f08c379a0000000000000000000000000000000000000000000000000000000008152600401610736906121df565b60405180910390fd5b80915050919050565b60008073ffffffffffffffffffffffffffffffffffffffff168273ffffffffffffffffffffffffffffffffffffffff16036107b8576040517f08c379a00000000000000000000000000000000000000000000000000000000081526004016107af90612271565b60405180910390fd5b600360008373ffffffffffffffffffffffffffffffffffffffff1673ffffffffffffffffffffffffffffffffffffffff168152602001908152602001600020549050919050565b60606001805461080e90611ef4565b80601f016020809104026020016040519081016040528092919081815260200182805461083a90611ef4565b80156108875780601f1061085c57610100808354040283529160200191610887565b820191906000526020600020905b81548152906001019060200180831161086a57829003601f168201915b5050505050905090565b6108a361089c610bfc565b8383611001565b5050565b6108b86108b2610bfc565b83610cbd565b6108f7576040517f08c379a00000000000000000000000000000000000000000000000000000000081526004016108ee9061214d565b60405180910390fd5b6109038484848461116d565b50505050565b606061091482610b90565b610953576040517f08c379a000000000000000000000000000000000000000000000000000000000815260040161094a90612303565b60405180910390fd5b600060066000848152602001908152602001600020805461097390611ef4565b80601f016020809104026020016040519081016040528092919081815260200182805461099f90611ef4565b80156109ec5780601f106109c1576101008083540402835291602001916109ec565b820191906000526020600020905b8154815290600101906020018083116109cf57829003601f168201915b5050505050905060006109fd6111c9565b90506000815103610a12578192505050610a55565b600082511115610a47578082604051602001610a2f92919061235f565b60405160208183030381529060405292505050610a55565b610a50846111e0565b925050505b919050565b6000600560008473ffffffffffffffffffffffffffffffffffffffff1673ffffffffffffffffffffffffffffffffffffffff16815260200190815260200160002060008373ffffffffffffffffffffffffffffffffffffffff1673ffffffffffffffffffffffffffffffffffffffff16815260200190815260200160002060009054906101000a900460ff16905092915050565b6000610afa6007611287565b6000610b06600761129d565b9050610b1284826112ab565b610b1c8184611484565b8091505092915050565b60007f01ffc9a7000000000000000000000000000000000000000000000000000000007bffffffffffffffffffffffffffffffffffffffffffffffffffffffff1916827bffffffffffffffffffffffffffffffffffffffffffffffffffffffff1916149050919050565b60008073ffffffffffffffffffffffffffffffffffffffff166002600084815260200190815260200160002060009054906101000a900473ffffffffffffffffffffffffffffffffffffffff1673ffffffffffffffffffffffffffffffffffffffff1614159050919050565b600033905090565b816004600083815260200190815260200160002060006101000a81548173ffffffffffffffffffffffffffffffffffffffff021916908373ffffffffffffffffffffffffffffffffffffffff160217905550808273ffffffffffffffffffffffffffffffffffffffff16610c7783610697565b73ffffffffffffffffffffffffffffffffffffffff167f8c5be1e5ebec7d5bd14f71427d1e84f3dd0314c0f7b2291e5b200ac8c7c3b92560405160405180910390a45050565b6000610cc882610b90565b610d07576040517f08c379a0000000000000000000000000000000000000000000000000000000008152600401610cfe906123f5565b60405180910390fd5b6000610d1283610697565b90508073ffffffffffffffffffffffffffffffffffffffff168473ffffffffffffffffffffffffffffffffffffffff161480610d545750610d538185610a5a565b5b80610d9257508373ffffffffffffffffffffffffffffffffffffffff16610d7a8461047b565b73ffffffffffffffffffffffffffffffffffffffff16145b91505092915050565b8273ffffffffffffffffffffffffffffffffffffffff16610dbb82610697565b73ffffffffffffffffffffffffffffffffffffffff1614610e11576040517f08c379a0000000000000000000000000000000000000000000000000000000008152600401610e0890612487565b60405180910390fd5b600073ffffffffffffffffffffffffffffffffffffffff168273ffffffffffffffffffffffffffffffffffffffff1603610e80576040517f08c379a0000000000000000000000000000000000000000000000000000000008152600401610e7790612519565b60405180910390fd5b610e8b8383836114f1565b610e96600082610c04565b6001600360008573ffffffffffffffffffffffffffffffffffffffff1673ffffffffffffffffffffffffffffffffffffffff1681526020019081526020016000206000828254610ee69190612568565b925050819055506001600360008473ffffffffffffffffffffffffffffffffffffffff1673ffffffffffffffffffffffffffffffffffffffff1681526020019081526020016000206000828254610f3d919061259c565b92505081905550816002600083815260200190815260200160002060006101000a81548173ffffffffffffffffffffffffffffffffffffffff021916908373ffffffffffffffffffffffffffffffffffffffff160217905550808273ffffffffffffffffffffffffffffffffffffffff168473ffffffffffffffffffffffffffffffffffffffff167fddf252ad1be2c89b69c2b068fc378daa952ba7f163c4a11628f55a4df523b3ef60405160405180910390a4610ffc8383836114f6565b505050565b8173ffffffffffffffffffffffffffffffffffffffff168373ffffffffffffffffffffffffffffffffffffffff160361106f576040517f08c379a00000000000000000000000000000000000000000000000000000000081526004016110669061263e565b60405180910390fd5b80600560008573ffffffffffffffffffffffffffffffffffffffff1673ffffffffffffffffffffffffffffffffffffffff16815260200190815260200160002060008473ffffffffffffffffffffffffffffffffffffffff1673ffffffffffffffffffffffffffffffffffffffff16815260200190815260200160002060006101000a81548160ff0219169083151502179055508173ffffffffffffffffffffffffffffffffffffffff168373ffffffffffffffffffffffffffffffffffffffff167f17307eab39ab6107e8899845ad3d59bd9653f200f220920489ca2b5937696c318360405161116091906118b9565b60405180910390a3505050565b611178848484610d9b565b611184848484846114fb565b6111c3576040517f08c379a00000000000000000000000000000000000000000000000000000000081526004016111ba906126d0565b60405180910390fd5b50505050565b606060405180602001604052806000815250905090565b60606111eb82610b90565b61122a576040517f08c379a000000000000000000000000000000000000000000000000000000000815260040161122190612762565b60405180910390fd5b60006112346111c9565b90506000815111611254576040518060200160405280600081525061127f565b8061125e84611682565b60405160200161126f92919061235f565b6040516020818303038152906040525b915050919050565b6001816000016000828254019250508190555050565b600081600001549050919050565b600073ffffffffffffffffffffffffffffffffffffffff168273ffffffffffffffffffffffffffffffffffffffff160361131a576040517f08c379a0000000000000000000000000000000000000000000000000000000008152600401611311906127ce565b60405180910390fd5b61132381610b90565b15611363576040517f08c379a000000000000000000000000000000000000000000000000000000000815260040161135a9061283a565b60405180910390fd5b61136f600083836114f1565b6001600360008473ffffffffffffffffffffffffffffffffffffffff1673ffffffffffffffffffffffffffffffffffffffff16815260200190815260200160002060008282546113bf919061259c565b92505081905550816002600083815260200190815260200160002060006101000a81548173ffffffffffffffffffffffffffffffffffffffff021916908373ffffffffffffffffffffffffffffffffffffffff160217905550808273ffffffffffffffffffffffffffffffffffffffff16600073ffffffffffffffffffffffffffffffffffffffff167fddf252ad1be2c89b69c2b068fc378daa952ba7f163c4a11628f55a4df523b3ef60405160405180910390a4611480600083836114f6565b5050565b61148d82610b90565b6114cc576040517f08c379a00000000000000000000000000000000000000000000000000000000081526004016114c3906128cc565b60405180910390fd5b806006600084815260200190815260200160002090816114ec9190612a98565b505050565b505050565b505050565b600061151c8473ffffffffffffffffffffffffffffffffffffffff166117e2565b15611675578373ffffffffffffffffffffffffffffffffffffffff1663150b7a02611545610bfc565b8786866040518563ffffffff1660e01b81526004016115679493929190612bbf565b6020604051808303816000875af19250505080156115a357506040513d601f19601f820116820180604052508101906115a09190612c20565b60015b611625573d80600081146115d3576040519150601f19603f3d011682016040523d82523d6000602084013e6115d8565b606091505b50600081510361161d576040517f08c379a0000000000000000000000000000000000000000000000000000000008152600401611614906126d0565b60405180910390fd5b805181602001fd5b63150b7a0260e01b7bffffffffffffffffffffffffffffffffffffffffffffffffffffffff1916817bffffffffffffffffffffffffffffffffffffffffffffffffffffffff19161491505061167a565b600190505b949350505050565b6060600082036116c9576040518060400160405280600181526020017f300000000000000000000000000000000000000000000000000000000000000081525090506117dd565b600082905060005b600082146116fb5780806116e490612c4d565b915050600a826116f49190612cc4565b91506116d1565b60008167ffffffffffffffff81111561171757611716611bda565b5b6040519080825280601f01601f1916602001820160405280156117495781602001600182028036833780820191505090505b5090505b600085146117d6576001826117629190612568565b9150600a856117719190612cf5565b603061177d919061259c565b60f81b81838151811061179357611792612d26565b5b60200101907effffffffffffffffffffffffffffffffffffffffffffffffffffffffffffff1916908160001a905350600a856117cf9190612cc4565b945061174d565b8093505050505b919050565b6000808273ffffffffffffffffffffffffffffffffffffffff163b119050919050565b6000604051905090565b600080fd5b600080fd5b60007fffffffff0000000000000000000000000000000000000000000000000000000082169050919050565b61184e81611819565b811461185957600080fd5b50565b60008135905061186b81611845565b92915050565b6000602082840312156118875761188661180f565b5b60006118958482850161185c565b91505092915050565b60008115159050919050565b6118b38161189e565b82525050565b60006020820190506118ce60008301846118aa565b92915050565b600081519050919050565b600082825260208201905092915050565b60005b8381101561190e5780820151818401526020810190506118f3565b8381111561191d576000848401525b50505050565b6000601f19601f8301169050919050565b600061193f826118d4565b61194981856118df565b93506119598185602086016118f0565b61196281611923565b840191505092915050565b600060208201905081810360008301526119878184611934565b905092915050565b6000819050919050565b6119a28161198f565b81146119ad57600080fd5b50565b6000813590506119bf81611999565b92915050565b6000602082840312156119db576119da61180f565b5b60006119e9848285016119b0565b91505092915050565b600073ffffffffffffffffffffffffffffffffffffffff82169050919050565b6000611a1d826119f2565b9050919050565b611a2d81611a12565b82525050565b6000602082019050611a486000830184611a24565b92915050565b611a5781611a12565b8114611a6257600080fd5b50565b600081359050611a7481611a4e565b92915050565b60008060408385031215611a9157611a9061180f565b5b6000611a9f85828601611a65565b9250506020611ab0858286016119b0565b9150509250929050565b600080600060608486031215611ad357611ad261180f565b5b6000611ae186828701611a65565b9350506020611af286828701611a65565b9250506040611b03868287016119b0565b9150509250925092565b600060208284031215611b2357611b2261180f565b5b6000611b3184828501611a65565b91505092915050565b611b438161198f565b82525050565b6000602082019050611b5e6000830184611b3a565b92915050565b611b6d8161189e565b8114611b7857600080fd5b50565b600081359050611b8a81611b64565b92915050565b60008060408385031215611ba757611ba661180f565b5b6000611bb585828601611a65565b9250506020611bc685828601611b7b565b9150509250929050565b600080fd5b600080fd5b7f4e487b7100000000000000000000000000000000000000000000000000000000600052604160045260246000fd5b611c1282611923565b810181811067ffffffffffffffff82111715611c3157611c30611bda565b5b80604052505050565b6000611c44611805565b9050611c508282611c09565b919050565b600067ffffffffffffffff821115611c7057611c6f611bda565b5b611c7982611923565b9050602081019050919050565b82818337600083830152505050565b6000611ca8611ca384611c55565b611c3a565b905082815260208101848484011115611cc457611cc3611bd5565b5b611ccf848285611c86565b509392505050565b600082601f830112611cec57611ceb611bd0565b5b8135611cfc848260208601611c95565b91505092915050565b60008060008060808587031215611d1f57611d1e61180f565b5b6000611d2d87828801611a65565b9450506020611d3e87828801611a65565b9350506040611d4f878288016119b0565b925050606085013567ffffffffffffffff811115611d7057611d6f611814565b5b611d7c87828801611cd7565b91505092959194509250565b60008060408385031215611d9f57611d9e61180f565b5b6000611dad85828601611a65565b9250506020611dbe85828601611a65565b9150509250929050565b600067ffffffffffffffff821115611de357611de2611bda565b5b611dec82611923565b9050602081019050919050565b6000611e0c611e0784611dc8565b611c3a565b905082815260208101848484011115611e2857611e27611bd5565b5b611e33848285611c86565b509392505050565b600082601f830112611e5057611e4f611bd0565b5b8135611e60848260208601611df9565b91505092915050565b60008060408385031215611e8057611e7f61180f565b5b6000611e8e85828601611a65565b925050602083013567ffffffffffffffff811115611eaf57611eae611814565b5b611ebb85828601611e3b565b9150509250929050565b7f4e487b7100000000000000000000000000000000000000000000000000000000600052602260045260246000fd5b60006002820490506001821680611f0c57607f821691505b602082108103611f1f57611f1e611ec5565b5b50919050565b7f4552433732313a20617070726f76656420717565727920666f72206e6f6e657860008201527f697374656e7420746f6b656e0000000000000000000000000000000000000000602082015250565b6000611f81602c836118df565b9150611f8c82611f25565b604082019050919050565b60006020820190508181036000830152611fb081611f74565b9050919050565b7f4552433732313a20617070726f76616c20746f2063757272656e74206f776e6560008201527f7200000000000000000000000000000000000000000000000000000000000000602082015250565b60006120136021836118df565b915061201e82611fb7565b604082019050919050565b6000602082019050818103600083015261204281612006565b9050919050565b7f4552433732313a20617070726f76652063616c6c6572206973206e6f74206f7760008201527f6e6572206e6f7220617070726f76656420666f7220616c6c0000000000000000602082015250565b60006120a56038836118df565b91506120b082612049565b604082019050919050565b600060208201905081810360008301526120d481612098565b9050919050565b7f4552433732313a207472616e736665722063616c6c6572206973206e6f74206f60008201527f776e6572206e6f7220617070726f766564000000000000000000000000000000602082015250565b60006121376031836118df565b9150612142826120db565b604082019050919050565b600060208201905081810360008301526121668161212a565b9050919050565b7f4552433732313a206f776e657220717565727920666f72206e6f6e657869737460008201527f656e7420746f6b656e0000000000000000000000000000000000000000000000602082015250565b60006121c96029836118df565b91506121d48261216d565b604082019050919050565b600060208201905081810360008301526121f8816121bc565b9050919050565b7f4552433732313a2062616c616e636520717565727920666f7220746865207a6560008201527f726f206164647265737300000000000000000000000000000000000000000000602082015250565b600061225b602a836118df565b9150612266826121ff565b604082019050919050565b6000602082019050818103600083015261228a8161224e565b9050919050565b7f45524337323155524953746f726167653a2055524920717565727920666f722060008201527f6e6f6e6578697374656e7420746f6b656e000000000000000000000000000000602082015250565b60006122ed6031836118df565b91506122f882612291565b604082019050919050565b6000602082019050818103600083015261231c816122e0565b9050919050565b600081905092915050565b6000612339826118d4565b6123438185612323565b93506123538185602086016118f0565b80840191505092915050565b600061236b828561232e565b9150612377828461232e565b91508190509392505050565b7f4552433732313a206f70657261746f7220717565727920666f72206e6f6e657860008201527f697374656e7420746f6b656e0000000000000000000000000000000000000000602082015250565b60006123df602c836118df565b91506123ea82612383565b604082019050919050565b6000602082019050818103600083015261240e816123d2565b9050919050565b7f4552433732313a207472616e736665722066726f6d20696e636f72726563742060008201527f6f776e6572000000000000000000000000000000000000000000000000000000602082015250565b60006124716025836118df565b915061247c82612415565b604082019050919050565b600060208201905081810360008301526124a081612464565b9050919050565b7f4552433732313a207472616e7366657220746f20746865207a65726f2061646460008201527f7265737300000000000000000000000000000000000000000000000000000000602082015250565b60006125036024836118df565b915061250e826124a7565b604082019050919050565b60006020820190508181036000830152612532816124f6565b9050919050565b7f4e487b7100000000000000000000000000000000000000000000000000000000600052601160045260246000fd5b60006125738261198f565b915061257e8361198f565b92508282101561259157612590612539565b5b828203905092915050565b60006125a78261198f565b91506125b28361198f565b9250827fffffffffffffffffffffffffffffffffffffffffffffffffffffffffffffffff038211156125e7576125e6612539565b5b828201905092915050565b7f4552433732313a20617070726f766520746f2063616c6c657200000000000000600082015250565b60006126286019836118df565b9150612633826125f2565b602082019050919050565b600060208201905081810360008301526126578161261b565b9050919050565b7f4552433732313a207472616e7366657220746f206e6f6e20455243373231526560008201527f63656976657220696d706c656d656e7465720000000000000000000000000000602082015250565b60006126ba6032836118df565b91506126c58261265e565b604082019050919050565b600060208201905081810360008301526126e9816126ad565b9050919050565b7f4552433732314d657461646174613a2055524920717565727920666f72206e6f60008201527f6e6578697374656e7420746f6b656e0000000000000000000000000000000000602082015250565b600061274c602f836118df565b9150612757826126f0565b604082019050919050565b6000602082019050818103600083015261277b8161273f565b9050919050565b7f4552433732313a206d696e7420746f20746865207a65726f2061646472657373600082015250565b60006127b86020836118df565b91506127c382612782565b602082019050919050565b600060208201905081810360008301526127e7816127ab565b9050919050565b7f4552433732313a20746f6b656e20616c7265616479206d696e74656400000000600082015250565b6000612824601c836118df565b915061282f826127ee565b602082019050919050565b6000602082019050818103600083015261285381612817565b9050919050565b7f45524337323155524953746f726167653a2055524920736574206f66206e6f6e60008201527f6578697374656e7420746f6b656e000000000000000000000000000000000000602082015250565b60006128b6602e836118df565b91506128c18261285a565b604082019050919050565b600060208201905081810360008301526128e5816128a9565b9050919050565b60008190508160005260206000209050919050565b60006020601f8301049050919050565b600082821b905092915050565b60006008830261294e7fffffffffffffffffffffffffffffffffffffffffffffffffffffffffffffffff82612911565b6129588683612911565b95508019841693508086168417925050509392505050565b6000819050919050565b600061299561299061298b8461198f565b612970565b61198f565b9050919050565b6000819050919050565b6129af8361297a565b6129c36129bb8261299c565b84845461291e565b825550505050565b600090565b6129d86129cb565b6129e38184846129a6565b505050565b5b81811015612a07576129fc6000826129d0565b6001810190506129e9565b5050565b601f821115612a4c57612a1d816128ec565b612a2684612901565b81016020851015612a35578190505b612a49612a4185612901565b8301826129e8565b50505b505050565b600082821c905092915050565b6000612a6f60001984600802612a51565b1980831691505092915050565b6000612a888383612a5e565b9150826002028217905092915050565b612aa1826118d4565b67ffffffffffffffff811115612aba57612ab9611bda565b5b612ac48254611ef4565b612acf828285612a0b565b600060209050601f831160018114612b025760008415612af0578287015190505b612afa8582612a7c565b865550612b62565b601f198416612b10866128ec565b60005b82811015612b3857848901518255600182019150602085019450602081019050612b13565b86831015612b555784890151612b51601f891682612a5e565b8355505b6001600288020188555050505b505050505050565b600081519050919050565b600082825260208201905092915050565b6000612b9182612b6a565b612b9b8185612b75565b9350612bab8185602086016118f0565b612bb481611923565b840191505092915050565b6000608082019050612bd46000830187611a24565b612be16020830186611a24565b612bee6040830185611b3a565b8181036060830152612c008184612b86565b905095945050505050565b600081519050612c1a81611845565b92915050565b600060208284031215612c3657612c3561180f565b5b6000612c4484828501612c0b565b91505092915050565b6000612c588261198f565b91507fffffffffffffffffffffffffffffffffffffffffffffffffffffffffffffffff8203612c8a57612c89612539565b5b600182019050919050565b7f4e487b7100000000000000000000000000000000000000000000000000000000600052601260045260246000fd5b6000612ccf8261198f565b9150612cda8361198f565b925082612cea57612ce9612c95565b5b828204905092915050565b6000612d008261198f565b9150612d0b8361198f565b925082612d1b57612d1a612c95565b5b828206905092915050565b7f4e487b7100000000000000000000000000000000000000000000000000000000600052603260045260246000fdfea2646970667358221220e067a384d99158b11abcc9dfe121a1cc41e47df5b23b3c6afae1f4d7bfae5ec764736f6c634300080f0033",
  "immutableReferences": {},
  "source": "// SPDX-License-Identifier: MIT\r\npragma solidity >=0.4.22 <0.9.0; //  \r\n\r\nimport \"@openzeppelin/contracts/token/ERC721/extensions/ERC721URIStorage.sol\";\r\nimport \"@openzeppelin/contracts/utils/Counters.sol\";\r\n\r\ncontract DigitalPicture is ERC721URIStorage {\r\n    using Counters for Counters.Counter;\r\n    Counters.Counter private _tokenIds;\r\n\r\n    constructor() ERC721(\"DigitalPicture\", \"NDP\") {}\r\n\r\n    // web3.js\r\n    function publishItem(address creator, string memory tokenURI) public returns (uint256){\r\n        _tokenIds.increment(); //  1 \r\n\r\n        uint256 newTokenId = _tokenIds.current();\r\n        _mint(creator, newTokenId);\r\n        _setTokenURI(newTokenId, tokenURI);\r\n\r\n        return newTokenId; //IPFS \r\n    }\r\n}\r\n",
  "sourcePath": "C:\\Users\\choij\\Desktop\\SOLIDITY\\NFT\\contracts\\DigitalPicture.sol",
  "compiler": {
    "name": "solc",
    "version": "0.8.15+commit.e14f2714.Emscripten.clang"
  },
  "schemaVersion": "3.4.8",
  "updatedAt": "2022-07-17T07:01:02.924Z",
  "devdoc": {
    "kind": "dev",
    "methods": {
      "approve(address,uint256)": {
        "details": "See {IERC721-approve}."
      },
      "balanceOf(address)": {
        "details": "See {IERC721-balanceOf}."
      },
      "getApproved(uint256)": {
        "details": "See {IERC721-getApproved}."
      },
      "isApprovedForAll(address,address)": {
        "details": "See {IERC721-isApprovedForAll}."
      },
      "name()": {
        "details": "See {IERC721Metadata-name}."
      },
      "ownerOf(uint256)": {
        "details": "See {IERC721-ownerOf}."
      },
      "safeTransferFrom(address,address,uint256)": {
        "details": "See {IERC721-safeTransferFrom}."
      },
      "safeTransferFrom(address,address,uint256,bytes)": {
        "details": "See {IERC721-safeTransferFrom}."
      },
      "setApprovalForAll(address,bool)": {
        "details": "See {IERC721-setApprovalForAll}."
      },
      "supportsInterface(bytes4)": {
        "details": "See {IERC165-supportsInterface}."
      },
      "symbol()": {
        "details": "See {IERC721Metadata-symbol}."
      },
      "tokenURI(uint256)": {
        "details": "See {IERC721Metadata-tokenURI}."
      },
      "transferFrom(address,address,uint256)": {
        "details": "See {IERC721-transferFrom}."
      }
    },
    "version": 1
  },
  "userdoc": {
    "kind": "user",
    "methods": {},
    "version": 1
  }
}